:100000000C9448110C941E200C94F71F0C94701142
:100010000C9470110C9470110C9470110C9470115C
:100020000C9470110C9470110C9470110C9470114C
:100030000C9470110C9470110C9470110C9470113C
:100040000C94AD1F0C9470110C947B1F0C94551FD5
:100050000C9470110C9470110C9470110C9470111C
:100060000C9445200C94701100000000240027001F
:100070002A0000000000250028002B0000000000DE
:1000800023002600290004040404040404040202DA
:100090000202020203030303030301020408102007
:1000A0004080010204081020010204081020000012
:1000B0000008000201000003040700000000000027
:1000C00000009D00030404040304050F0FFFFD0955
:1000D000FD0900017402E90822200500C40A210874
:1000E00093448A873103220A476C8C112B235200D8
:1000F000231098C41C2191871021797908111201CD
:100100002411A8BC3C4193136947672222278662C9
:1001100000250F98C48CB191201332BA18858C0D2C
:10012000260B66D62C412126412100270844F40ADB
:10013000161100280A9744CC31221A691C290B9702
:10014000448C413AD13608002A0E774C0CB192917A
:10015000B2B1929132012B0B66CC2B412126412169
:10016000002C08333C1A1112002D0626DC0B062E3B
:100170000632C409032F138AC47D107180E111B1C6
:10018000A191C1E271906000300A98C48C07223BB3
:100190003D10310793448A0706320D98C48C13D45E
:1001A0001197D1D18700330D98C48C135415D4D135
:1001B000871100340A98C48C214B0FA473350D9815
:1001C000C48C07D213D4D1871100360D98C49C87F4
:1001D000D19325A3151300370998C48C87D0F90152
:1001E000380E98C41C93A5119325A3151300390E3E
:1001F00098C41C9325A395D3911313003A0772C496
:100200000923033B0A833C1A19454448003C0D96D8
:10021000C44BB121929522B241013D0756D40B66E1
:10022000063E0E96C40BC131A29215A23141003F89
:100230000F98C41C93A5D121A372C0D13100400FE7
:1002400099445DA413A3916922328A6001410C98FC
:10025000C41C9325A387234B03420E98C48C93257B
:10026000239521A3871100430A97449C87C0399E98
:1002700018440B98C48C93253B3D8C00450C974447
:100280008C07411393C14107460D97448C07C14128
:100290001393C18900470B98C49C87D14996560E89
:1002A000480B98C48C214B0F47360D490995440BD8
:1002B00095A1B9284A0B98C4DCB91A19AD98004B1E
:1002C0000D98C48C212B2B4623932C0D4C0997445D
:1002D0008CC1F9E8004D0D9AC48DC1A307161143D6
:1002E0001B074E0C98C48CA1938793239B064F0B3E
:1002F00098C41C93253BAD9800500D98C48C932551
:10030000A38791D1A900510BA8BC1C93253B291DA3
:100310000B520D98C48C9325A38791214B03530D49
:1003200097449C874023C3C1871000540A97440C0C
:10033000A7C1F90400550B98C48C21FBB4620200DC
:10034000560C98C48C21FB3262540600570E9AC496
:100350008D415B444C441E1E8E08580E98C48C215F
:100360004B23666426439606590E99448D31B31388
:1003700092B3D2E1D9005A0B98C48C8740323A3EEE
:10038000045B0895448BA639295C0C9944BDE1694E
:100390000F6CC3D3005D0895440BA539355E083654
:1003A000F42B3112035F0728AC8C87006016CC3B1E
:1003B000DEE325A543B421A2C121B1206121612141
:1003C0004D00610B78C41C13D411A59503620D98E0
:1003D000C48CD1D193254B0F2300630A78C49C872A
:1003E000D1A92807640B98C4DC290F4396560E65E3
:1003F0000B78C41C932557141300660C96C42B92DB
:10040000922196B19900670EA8AC1C93254B2BA79F
:1004100023272600680B98C48CD1D193253B0D6906
:100420000893448AB107036A0BB534AB7180A17994
:1004300062016B0F98C48CD1492623462723474677
:10044000036C0793448A07066D107B440E159711C1
:1004500093119311931193096E0978C48C93253BE2
:100460000D6F0B78C41C93254B2B2600700D98B490
:100470008C93254B0F23A3A300710B98B49C872169
:100480004B2BA713720977449C87C03902730B78F2
:10049000C49C8761E3871100740C96C49BB12196BC
:1004A000B1694504750978C48C213BAD1C760B7885
:1004B000C48C21BB8C18950177127B448E911193CB
:1004C00011931193119311971400780E78C48C2115
:1004D000A31133329321A301790DA8AC8C213BAD3C
:1004E0009C8E9C98007A0A78C48C8730DA1E027B36
:1004F0000C694CCD7080D1B29387017C07B2BC8966
:1005000087037D0D69448D8791B3D2718040007E51
:100510000F4AD49DA111A121A12191A11100A005F3
:1005200000C40AA11ADB3C3E7120712071201161C8
:100530001191401129212A0F2F4A692700A21FC9B2
:1005400044BD708090E090E010D19010219128225D
:10055000B188848A0388038404079900A30DA8C482
:100560002C3223B93C10193D10A4107ACCED702028
:10057000C1A3871141A1D03000A5139CC47E807017
:1005800040E1C3A487132551B1E04000A61099446F
:100590002DE1D123A44962C223474600A712994402
:1005A0005D7180B193A51131A17180331300A81D35
:1005B000BCC47EA0711072007200720072007220C2
:1005C0007180719071A07190712000A918AAC47DEA
:1005D00010D190C1E2E190C1908821C121C1E30016
:1005E000E22000AB0D78CCBC4852465626498B0021
:1005F000AC139944ADB293B1A2209211A2A0B291D2
:10060000B32200AE1CAEC45F31E1414112A124917E
:10061000249124912411311221C14161312100B072
:100620000B46F41B122122111200B407774C8C1FC9
:1006300008B50F88CC0CC1A21133423293A14201FC
:10064000B60D774CACB112316A22654300B70C7716
:100650004CACB1920793B22100BB1278CC8CB03075
:1006600021A19191951121A1B03000C00E96C40B2B
:10067000C131A29215A2314100C10E96C40BC13105
:10068000A29215A2314100C20E96C40BC131A292B2
:1006900015A2314100C30E96C40BC131A29215A21E
:1006A000314100C40E96C40BC131A29215A2314152
:1006B00000C50E96C40BC131A29215A2314100C8EB
:1006C0001799440D11419131112291121194121177
:1006D000229131114100C91799440D1141913111F5
:1006E00022911211941211229131114100CA1799CD
:1006F000440D114191311122911211941211229144
:1007000031114100CB1799440D11419131112291C2
:100710001211941211229131114100CC0E98C40C87
:1007200041B222939723B34201CD0E98C40C41B23B
:1007300022939723B34201CE0E98C40C41B2229368
:100740009723B34201CF0E98C40C41B22293972352
:10075000B34201D107774C8C1F08D2117ACC0DB16E
:10076000B02121929197912221B208D3117ACC0D18
:10077000B1B02121929197912221B208D4117ACC63
:100780000DB1B02121929197912221B208D5117A11
:10079000CC0DB1B02121929197912221B208D611AE
:1007A0007ACC0DB1B02121929197912221B208D734
:1007B0000F88C40CC1A21133423293A14201D80F59
:1007C0009944CD7080D1B2938771A08701D9127AF4
:1007D000CC8DB03022A19291971122A1B13001DAD3
:1007E000127ACC8DB03022A19291971122A1B13012
:1007F00001DB127ACC8DB03022A19291971122A107
:10080000B13001DC127ACC8DB03022A192919711D7
:1008100022A1B13001DF0C97445CC1B10735C25150
:1008200001E00998C48C21FBD300E10998C48C2114
:10083000FBD300E20998C48C21FBD300E30998C4E0
:100840008C21FBD300E40998C48C21FBD300E5097B
:1008500098C48C21FBD300E70E98C40C41B22293BC
:100860009723B34201E80D774CBCD0B19293B2D13B
:100870003000E90D774CBCD0B19293B2D13000EA90
:100880000D774CBCD0B19293B2D13000EB0D774CC8
:10089000BCD0B19293B2D13000F80D774CACB1120C
:1008A000316A22654300F90C97445CC1B10735C237
:1008B0005101FA149B445E719071001291A34C6235
:1008C00024A2E3408200FB1A9EC45F31E141411241
:1008D000A1249124912411311221C14161312100BF
:1008E000FC1999445D91409140912092B091482229
:1008F0002182216341E300420000000004FFFF0069
:1009000000BE0003020303030404070700000600FF
:1009100006000123024F070C200500F101210731D9
:10092000F131240122071BF7915802230B2DF353B9
:100930001994CAA05400240B35F13328D9960C5AC7
:100940000425092DF1212D596512260B35F1B3A48B
:10095000839444D10227071AF7A12800280732F10F
:10096000A33405290832F1112515052A0A2DF3555E
:10097000A92C4D11002B0A2DF11546831446002C8D
:10098000071AF1A128002D060DF531082E0612F1E7
:1009900031042F072DF1997504300B35F1B3444B19
:1009A0003269C902310672F1B374320B35F1B364A6
:1009B0009194858300330B35F1B36491AA250B0024
:1009C000340B35F197494932686102350A35F171C6
:1009D0001CD2705000360B35F1B384439269C902C2
:1009E000370935F1318859B104380B35F1B364C991
:1009F0009269C902390B35F1B3645A3284C9023A9B
:100A00000832F1318443003B0832F131448A023C20
:100A1000072BF195D40A3D081DF331A883003E0849
:100A20002BF191554A003F0935F1B364ED50044074
:100A30000C35F1B364CA90244A6508410B35F1B313
:100A400064DA30645A00420C35F13124D9A064DAFA
:100A5000A000430935F13388AD4300440A35F13134
:100A60002499DBA000450A35F1711C92301C044624
:100A70000935F1711C92B008470B35F13388C990E4
:100A800069C910480A35F19169C390D902490935FD
:100A9000F1314861D3204A0935F12716B564014B7D
:100AA0000B35F191494969AA64014C0835F1117679
:100AB0001C044D0B35F1912D4BA2249A164E0B358B
:100AC000F1914D4A226D5A004F0935F1B3646EC958
:100AD00002500B35F131249936286108510B35F15C
:100AE000B36496448A9400520B35F1312499362828
:100AF000A548530936F133CCE66101540935F1318B
:100B000048612700550935F191794B1600560D378C
:100B1000F19126599455C224CD00570A35F19159C7
:100B20001225B905580A35F19125B54A4D0B5909D9
:100B300035F19125B5B0095A0836F171EC380C5BE6
:100B40000732F1B1B4085C062DF191765D0732F100
:100B5000A1B40C5E081DF79525B5005F060DF131B7
:100B600008600612F91105610A2DF1B32683960C6F
:100B700001620B35F11126264D1B140063082DF17F
:100B80003388D521640A35F19998362D1902650A02
:100B90002DF1B364C3900E01660A35F1B56483127A
:100BA000D600670B2DF13368C9100E0A00680935AD
:100BB000F1112626CD166907B1F1910C016A0A35AB
:100BC000F19943A1962C006B0B34F191454A2225F3
:100BD000A5006C0772F1A1F4006D0B2DF1A1B428F2
:100BE000899228056E092DF19198345B006F092DCB
:100BF000F1B364B66401700B2DF13124D9A08421C6
:100C00000071092DF13368C9101672092DF1919800
:100C1000C4220073082DF133A80705740935F19338
:100C20000D4A581D75092DF19139294A00760B2D71
:100C3000F191694929C92200770A2DF1915912A52C
:100C40000B0078092DF19125B54A2D790B2DF191E5
:100C500069C9100E0A007A092DF131686D83007B95
:100C60000833F195D4A22C7C0571F1717D0933F123
:100C70009155A224027E081DF39325B504A10731E6
:100C8000F1910C01A20C35F1950D4A9464431401C5
:100C9000A30A35F1258553980D02A40B74F1112593
:100CA0004A24254A14A50B35F19125B56C0B230078
:100CB000A60631F12109A70B36F133CC4334C4C366
:100CC00002A8060BFB9104A90B3DF17149865591D1
:100CD0002245AA082BF3310DCA10AB071DF31349A7
:100CE0000DAC071DF1318805AD050BF531AE0735AB
:100CF000F1D3FF0FAF060DFB3108B0081BF731240D
:100D00004300B10925F3150D523408B2082BF3A1A5
:100D100025D300B3072BF3A15D00B40612F9A3009D
:100D2000B5092DF19199064504B60D35F1332889A1
:100D30005251A2244A02B70509F711B80613F1B5BA
:100D400000B9062AF3B334BA082BF353B15400BBED
:100D5000081DF31195A404BC0934F157190E8A0239
:100D6000BD0A34F1571922295100BE0A36F197669F
:100D700053974403BF0935F1954359CB02C00B3D4E
:100D8000F1B1234B360C9916C10B3DF1352FD930FB
:100D9000645A00C20C3DF19525D1920D43A605C3BE
:100DA0000B3DF1D36DC98621D302C40B3DF153072E
:100DB000966C18322DC50C3DF1B364C9920D43A653
:100DC00005C60C35F1332851120D4B940CC70B3569
:100DD000F13388E990451200C80B3DF1B103C721FA
:100DE000090701C90B3DF1B50EE390848300CA0CDD
:100DF0003DF19525C9300E493808CB0B3DF1531E06
:100E0000C621090701CC0B3DF1B1038314960601FD
:100E1000CD0A3DF1B50E52581A04CE0B3DF1952581
:100E2000C92085A541CF0A3DF1531EA4B03408D096
:100E30000C35F13124D99068DAA000D10B3DF1D303
:100E4000299B9444DA02D20B3DF1B1234B664B1639
:100E500000D30A3DF1352F992D5900D40B3DF19562
:100E600025D192D99205D50A3DF1D36DC96CC9023D
:100E7000D60B3DF1530796CC962C00D7092DF19156
:100E800025B54A2DD80B35F1B364D2924CC902D99D
:100E90000A3DF1B103995BB200DA093DF1B5666E26
:100EA000C902DB0A3DF1952535B76401DC093DF146
:100EB00053CEDC9205DD0A3DF1B566492D2C01DEED
:100EC0000B35F1110E49A60D4A08DF0B35F123450C
:100ED0004B54C91405E00B3DF1B1236B3268C910C6
:100EE000E10B3DF135AFC9A0254300E20C3DF19582
:100EF00025D19A0C5A3204E30B3DF1D36D4D062DEA
:100F00001902E40B3DF15307D664D09221E50C3D64
:100F1000F1B364C99A0C5A3204E60A2DF1534B928C
:100F2000A59608E70B35F13388E990451200E80BE8
:100F30003DF1B1234B360CE910E90B3DF1352FD9CA
:100F400030A44300EA0C3DF19525D1920D433A04BB
:100F5000EB0B3DF15307966C18D221EC083BF1B135
:100F6000235103ED08BBF131474D00EE087BF1D36F
:100F700018B500EF097BF191E440D402F00B35F194
:100F8000352683A6250B00F10A3DF1D3293169B638
:100F900000F20B3DF1B1234B664B1600F30A3DF115
:100FA000352F992D5900F40B3DF19525D192D99209
:100FB00005F50A3DF1D36DC96CC902F60B3DF1533D
:100FC0000796CC962C00F70A2DF19503830E44006A
:100FD000F80B2DF1B3444B32250B00F90A3DF1B16A
:100FE000039993A204FA093DF1B5664E8A12FB0AF1
:100FF0003DF1952535274509FC093DF153CE9C145B
:1010000025FD0B3DF1B5665A32848302FE0B35F1A6
:10101000110E4936286108FF0B3DF153CEB4640828
:10102000070500000004FFFF0000CB0002020203DE
:10103000030404030600FF05FF050000EA01D805CC
:101040007F2005E0CD002106B5C8AC0022068BCB81
:101050002415230897C8A4A1860A240897C88D38A8
:101060006202250897C864D44601260897C8283527
:1010700052122705A9CB082806B6C8A93229089616
:10108000C8C49414002A068FCAA40E2B078FC9A5C2
:1010900095002C068AC829002D0587CA0C2E05A5A7
:1010A000C8042F0797C8566504300797C82D6B01F1
:1010B000310696C8AD06320897C86890CA01330950
:1010C00097C86890325800340897C82435620135B3
:1010D0000897C88CA8C102360897C8CD914600373A
:1010E0000897C8CC544600380897C88C34D40839BF
:1010F0000897C88C34E2023A06ADC9A4003B0792B7
:10110000C865A0003C0897C8A61A64103D068FC9A0
:101110006C303E0997C86490412A013F0897C8CCBB
:10112000946102400897C855430301410897C85588
:1011300043A900420897C8A8B4D202430797C8CD74
:101140001A08440897C8A8642D00450897C88C3829
:10115000E200460897C88C386204470897C8CD91CA
:101160009200480897C82435940A490797C8AC5894
:101170000D4A0797C896AA024B0897C824B5920A49
:101180004C0797C8C4E6004D0897C8A431940A4E8E
:101190000897C8A471A8004F0797C855560550086E
:1011A00097C8A8B46204510897C8556A2401520828
:1011B00097C8A8345601530897C86D90C1025407C8
:1011C00097C8ACD802550797C8245712560897C835
:1011D00024AB4C00570897C82435860A580897C88E
:1011E00024D55201590897C8245556005A0797C864
:1011F000CC540E5B0797C88C580E5C088FC964905E
:1012000041005D0797C8CC72045E058BCB355F0546
:1012100087C80C60068ACBC400610793C8C8350232
:10122000620897C84495D402630793C8CD0C046440
:101230000897C8A6A59200650693C89D0266089700
:10124000C8A6B46202670897C71D312500680897D1
:10125000C84495AC006906B5C8A4016A089BC76676
:101260001855056B0897C8C4B454016C0797C8C8D3
:10127000D6006D0793C83C52006E0793C8A864055A
:101280006F0793C855AA02700897C7A8A45604719F
:101290000897C72D956400720693C8CD1273089302
:1012A000C88D381200740897C8A515A30075079358
:1012B000C8242B09760893C824355202770793C8AF
:1012C000A47104780793C8A43215790997C72495A7
:1012D000644A007A0793C8AC91067B0897C8A91A9C
:1012E00044017C06B5C828017D0997C8C80C525234
:1012F000007E068BCB8D04A106B5C8A401A2089779
:10130000C8A5115702A30897C8A9B4D200A407978B
:10131000C8A46A35A50897C82455AD04A606B5C863
:101320002801A70797C8A92E05A80687CCA400A95D
:10133000068FCA6D20AA0797C81D190CAB068ECA66
:10134000C900AC068BCACC00AD0586CA08AE068FB4
:10135000CA2855AF0587CC0CB0068FCA7501B108F5
:1013600097C8A595D100B2068FCAC828B3068FCA00
:10137000AC21B406AACB2900B50897C8246B450058
:10138000B60797C8ADE400B7058FC93CB8078FC84A
:1013900065B000B905ADCA0CBA0797C875A301BB03
:1013A00006AECA4405BC0897C8C44CC800BD079720
:1013B000C8C40C0DBE0897C8280D6500BF0897C8A3
:1013C0006598E200C00997C86590D24801C10897A6
:1013D000C8D5208D14C20897C86C94460AC30897D4
:1013E000C88D98460AC40897C8A4D65001C5089766
:1013F000C82895860AC60897C88D34D400C7099BAB
:10140000C7CD0C644A00C80797C865700DC9079717
:10141000C895430DCA0897C86C30D400CB0897C84C
:10142000A40C861ACC0897C86530521ACD0797C805
:10143000952B0DCE0897C86CB0D200CF0897C8A4E2
:101440000C561AD00897C8A834D402D10897C8C837
:10145000355400D20897C86530D408D30897C8958A
:10146000238D00D40897C86C30D208D50897C8C817
:10147000B14600D60997C8A40C461A01D7068FC9F1
:10148000A40ED80797C81D6A01D90997C86490921D
:101490001A01DA0897C8A64A8D00DB0897C86C9035
:1014A000D408DC0997C8A40C921A01DD0897C8A6D5
:1014B0006AA404DE0897C8C4918604DF089BC75D50
:1014C000694500E00897C865908E00E10897C8D587
:1014D000608D00E20797C86C7404E30897C88DB864
:1014E0004600E40897C8A48C8E00E50797C85947C2
:1014F00000E60793C88D2301E70897C76D205302C4
:10150000E80897C865908612E90897C8D560280151
:10151000EA0897C86C349400EB0897C8A48C86122C
:10152000EC07B6C8445501ED0696C8C954EE0897B5
:10153000C86C142B00EF0897C8A48C6205F00897BC
:10154000C88DB89200F10897C8C891920AF208971E
:10155000C86590BA00F30897C8D520B500F407977E
:10156000C86CD405F50797C848D505F60897C8A4F0
:101570008CBA00F70897C865B45102F80793C88D74
:10158000B500F90997C86490924A02FA0897C8A66C
:101590004A2501FB0897C86C905412FC0997C8A40F
:1015A0000C924A02FD089BC7A6964C09FE0897C7F5
:1015B00044955604FF0A9BC7A40C529229010000CF
:1015C0000004FFFF011D0680E90001520997C88D44
:1015D00034A40001530893C88D910601600A97C88E
:1015E000A434E2480001610A97C8A434E24800012B
:1015F000780A97C8A40C529900017D0997C8A49154
:10160000461A017E0997C8A491461A0EA40680E9DD
:101610000013A00680E900202206A5CA04202607A0
:1016200087C8A40020AC0897C88D230A00000100D9
:1016300003030304030405070E00FD07FE07000172
:101640005902CD08E8200500A2062107B9A3062902
:101650000022081BB74644250023103FA256241839
:10166000099D22A1532418090124134F9E56245684
:10167000C92249AB4522922CB5480800250F3FA24C
:10168000C64C128A4CA22993504436260F3FA28E94
:101690003014144662A2485A6C2227071AB78644AF
:1016A000022809BBA35624292D01290ABBA2462CD6
:1016B000292509002A09ADAA564A7E0A012B0AAD3E
:1016C000A65630540A86002C071A9E8644022D0620
:1016D0008DAE46012E0612A206012F083FA27634D7
:1016E0009F0130103FA2D62C2516118524B1482C1D
:1016F000360231093FA25E709CDB01320C3FA24EE4
:10170000251A8E54C2E103330E3FA24E251A0ED184
:1017100001D2480500340A3FA246382A3D843335B9
:101720000C3FA2C6211CB603C21700360D3FA20E05
:10173000291CB644A5910A0037093FA2C6399A5719
:1017400000380E3FA24E252A8D54A2D248050039FA
:101750000C3FA24E252A8D98532A003A072AA70645
:1017600089003B0832A3064922013C083CA25E28BE
:1017700063063D079DAA46B5003E093CA24630538C
:1017800036003F0D3FA24E251A0E0AE3E018004036
:101790000F3FA2D62C253291A4482A714001410E58
:1017A0003FA25E34128CC4922A516900420C3FA2BF
:1017B00086252ABD44A51700430D3FA21629284EB1
:1017C0000704431400440C3FA2462918896A8C94EC
:1017D00000450B3FA2C6211C2E85C307460B3FA226
:1017E000C6211C2E859301470E3FA21629288E5133
:1017F0002331D12400480A3FA24654F520550D4913
:10180000093FA2C62D9CDB014A0B3FA276666924E4
:10181000161B014B0F3FA246541889856849C148E1
:1018200034004C083FA24638CF074D0F3FA2467404
:10183000469BA44852442151024E103FA2865012AA
:1018400013854421594416110A4F0D3FA2D62C2569
:10185000AA1A89C54600500B3FA286252ABD84934B
:1018600001510D3FA2D62C25AA16498B4D02520BD1
:101870003FA286252ABD445503530E3FA24E252A7A
:1018800007D401D248050054093FA2C62D9C370059
:10189000550B3FA24654D7482C3602560F3FA2465E
:1018A000541A89856229C148340657113FA246540B
:1018B000141285242992DC42B10800580E3FA2463A
:1018C00034124B89A6C452A201590C3FA2463412CD
:1018D0004B8986B3015A083FA2C635AF075B083B68
:1018E000A30629A7015C103FA2461C1007C4017182
:1018F000401C1007045D083BA3C62827025E089D14
:10190000B2562C92165F060FA2C60160071BB346A3
:101910002C01610B37A24E1D10B94A2306620B47FA
:10192000A246386C896ABD00630B37A24E252A4E49
:101930008D5400640A47A276CA556BC400650C3703
:10194000A24E257A1047231500660A47A21E297861
:101950000AE708670B479ACE5535624EA900680A18
:1019600047A246386C89EA1A690A47A25E1C38CE3B
:10197000ED006A0C579A761C46CE591AA9006B0ED8
:1019800047A246387116A2250523D1006C0847A24C
:1019900006399F096D0F37A2C644120A8942A290E8
:1019A00028244A6E0937A28625AA6B006F0A37A23F
:1019B0004E25AA355201700B479A8625AA7A092727
:1019C00003710A479ACE553562CE00720937A28656
:1019D00025AA9C0C730B37A2CE1D5007842F0074D0
:1019E0000B47A25638780A670710750937A2465484
:1019F000D78801760E37A246541A89856229D118F4
:101A000000770F37A2465414128524B9856211005D
:101A1000780E37A2864C148986A391904C00790BDE
:101A2000479A46546BC49C52017A0A37A2C639368B
:101A30009A850F7B0B3BA38E2414898542027C067A
:101A4000B9A3C6017D0B3BA386282D128A48007ED0
:101A50000A9DAA4E4812114500A10739A246A400CA
:101A6000A21047A25EB0120A8962A15828A51803E5
:101A7000A30B3FA2E62C580CA74D06A40D2FA6469B
:101A80005432498B4426D200A50E3FA24634124B55
:101A900009DD62B71800A607B9A3C66400A70C3F0A
:101AA000A2CE39324B9B842F00A8070BBB462400E3
:101AB000A90E3FA21629288E5123C1100500AA0A9B
:101AC0002FAA4E1D10B9460CAB0D2EA6564A281251
:101AD0008A8562A100AC071FA6C63901AD060CAF0E
:101AE0000601AE0E3FA286252ABDC442C14834007D
:101AF000AF060BBBC600B0071BB3068500B109AD2E
:101B0000A656A8140714B20A2FAA861D10A9840F7E
:101B1000B30B2FAA861D10A2032E00B40713B7CE55
:101B20000800B50B479A4654EB50620E03B60F3FC0
:101B3000A2CE81628950829160241809B70612AF43
:101B40000601B8071BA34E6C02B9082FAACE38DBDA
:101B500001BA0A2FAA4E25AA1AA900BB0E2EA64624
:101B600028168A8522A1482804BC0C3FA286382961
:101B70009214491A27BD0D3FA2863849148CC4A27D
:101B8000E101BE0F3FA2861C1014454291C8689C1B
:101B900000BF0D3FA25E1C1C1486A3910A00C01159
:101BA00057A28E1C10074723C1482CA9129506C1C5
:101BB0001057A2A6300E8E4682915852252A0DC289
:101BC000125FA25E34124B074623C1482CA912951E
:101BD00006C31157A2563492949A128CC4922A5179
:101BE0006900C4104FA256240E4D0946624995A8BB
:101BF0003400C51157A25E34120D4723C1482CA9E9
:101C0000129506C60E3FA21E492A8C8C66A15888E2
:101C100000C71057961629284E070443C4382028B9
:101C200003C80E57A28E1C10871DC2E152387CC912
:101C30000E57A2A6300E3B84C3A570F800CA0F5FF2
:101C4000A25E34124B871CC2E152387CCB0E4FA2ED
:101C500056240E3A84C3A570F800CC0C57A28E1CF3
:101C60001087DDC2B91DCD0B57A2A6300EBB857300
:101C70003BCE0D5FA25E34124B87DCC2B91DCF0B89
:101C80004FA256240EBA85733BD00F3FA20E2D29CA
:101C9000588A0423B1100900D1155FA256349294DA
:101CA0000E124A62A29028248BC8224201D21057F9
:101CB000A28E1C1087CE52A2AA91586C04D3105742
:101CC000A2A6300E9DA5445523B1D80800D4115FBB
:101CD000A25E34124B87CD52A2AA91586C04D51241
:101CE0005FA2563492940E9CA5445523B1D80800A7
:101CF000D6104FA256240E9CA5445523B1D80800F7
:101D0000D70AADA6462C92969216D8123FA2D62498
:101D10002D128B884292582416898C00D90F57A215
:101D20008E1C108745758DC4622300DA0E57A2A65B
:101D3000300E8BEA1A89C54600DB105FA25E3412B2
:101D40004B8744758DC4622300DC0E4FA256240ECF
:101D50008AEA1A89C54600DD0F57A2A6300E8B46C7
:101D60006229D1703600DE0B3FA246D81255BD84E1
:101D700001DF103FA24629128C044393A824269A1F
:101D800000E00E4FA28E1C1007D60191AB3462E129
:101D90000E4FA2A6300EAC03225769C400E20F57C3
:101DA000A25E34124B07D50191AB3462E31057A207
:101DB000563492940EAB03225769C400E40E47A236
:101DC00056240EAB03225769C400E50F57A25E34B8
:101DD000128D03EB80C8551A31E60D37A28E6228AA
:101DE000728A85525400E70F4F964E252A4E8D1465
:101DF000E380A00C00E80F4FA28E1C100756A2072C
:101E000071345201E90E4FA2A6300EAC440FE268C5
:101E1000A402EA1057A25E34124B0755A207713490
:101E20005201EB0E47A256240EAB440FE268A40207
:101E3000EC0B4FA28E1C10078E733BED0A4FA2A62F
:101E4000300E1CE776EE0C57A25E34124B078D73F2
:101E50003BEF0A47A256240E1BE776F00E37A24E40
:101E600029588A0423C1480500F10D57A25634921F
:101E7000940EB244750DF20E4FA28E1C100756A29E
:101E80005A231500F30D4FA2A6300EAC44B5462AD6
:101E900000F40F57A25E34124B0755A25A231500C7
:101EA000F50F57A2563492940EAB44B5462A00F66D
:101EB0000D47A256240EAB44B5462A00F70AADA63C
:101EC000561C50078400F80E37A24E2516118524A3
:101ED000B161A402F90C4FA28E1C108745758D18B4
:101EE000FA0B4FA2A6300E8BEA1A31FB0D57A25EF9
:101EF00034124B8744758D18FC0B47A256240E8A6A
:101F0000EA1A31FD0F5F9A8E1C108745B546CC2921
:101F10001500FE0B37A246D812955EC200FF0E5781
:101F20009A56240E8A6A8D98532A0000000004FFF6
:101F3000FF016E0C3FA24654D7482C3602016F0AAF
:101F400037A24654D788010178104FA256240E8A32
:101F5000466229D170360003910F3FA25E34128C85
:101F6000C4922A51690003920D3FA286252ABD44DE
:101F7000A5170003930A3FA2C6219C670003941093
:101F80003FA25E34128CC4926291E8210003950C4A
:101F90003FA2C6211C2E85C3070396093FA2C63562
:101FA000AF0703970B3FA24654F520550D03981039
:101FB0003FA2D62C252A994823B1D8080003990AB4
:101FC0003FA2C62D9CDB01039A103FA246541889FC
:101FD000856849C1483400039B103FA25E34128CCF
:101FE000C4926291A83400039C103FA24674469BA1
:101FF000A4485244215102039D0F3FA246742889F0
:102000008942B288701A039E0A3FA2C61DA58E722D
:10201000039F0E3FA2D62C25AA1A89C5460003A00D
:10202000123FA2C625168A8562A15828168A450045
:1020300003A10C3FA286252ABD84930103A30D3F73
:10204000A2C6250E8803A2A90703A40A3FA2C62D93
:102050009C370003A50D3FA24634124B8986B3017D
:1020600003A6103FA25EB0120A8942A294620C003D
:1020700003A70F3FA24634124B89A6C452A2010304
:10208000A80E3FA24628244AC9360DA70103A90F6E
:102090003FA2D62C252A8DC45242930103B10F379B
:1020A000A20E45180946829160881203B20F4F9A1A
:1020B0004E252ABD44A59770180003B30D479A46D4
:1020C00034124B8986730303B40F3FA20E310E08FE
:1020D00056A2D248050003B50D37A256256A8903DA
:1020E000E2800203B60D4E9A4E2D98354C8E490073
:1020F00003B70B479A8625AA6B380103B80F37A29E
:102100004E252A0A8942D248050003B907B1A386A1
:102110000103BA0F37A24630120BD19282916800A8
:1021200003BB103FA24E1C10074423B194A83400F7
:1021300003BC0C479A4654EB50620E0303BD0D37A7
:10214000A2465435124B89C60003BE0F4E9A86250F
:10215000181E45C3E498040003BF0B37A24E25AAFE
:1021600035520103C01037A2CE25140BC542B15021
:102170002C140103C10C479A4E25AAF5120E030335
:10218000C210479A56251A8E03E2003A202801030E
:10219000C30F37A2CE31128C0423C110090003C42F
:1021A0000A37A2C62D9C1B0003C50C37A246546BF0
:1021B00024161B0103C60E3FA25E385809A514C39E
:1021C000310003C70F3F9E4634124B89A6C452A26A
:1021D0000103C80F3F9E4628240A89528AE1340031
:1021E00003C91137A24628240A8942A2902845052E
:1021F000002014070FAEC6012018071AB78E022060
:1022000019081AB7864402201A089AA386440220A5
:102210001B071AB38E02201C099DB64E481451208C
:102220001D0B9DB6864412124500201E0B9DA286F2
:10223000441212450020200B33A74E289229050096
:102240002022081BAB0685002039092BA756242D18
:1022500001203A0A2BA7462C25090020AC0E3FA2EC
:102260001629688BD682210A00FB011147A21E297C
:10227000788A8562A15828168A05FB021247A21E99
:10228000297608C542B1502C140BC502000060210C
:1022900011241FBECFEFD8E0DEBFCDBF28E0A8E2FB
:1022A000B4E001C01D92A530B207E1F714E0A0E050
:1022B000B1E0EAEBF2E602C005900D92A832B10758
:1022C000D9F711E1C8E4D1E104C02197FE010E94D1
:1022D0000F31C734D107C9F70E9495220C945B31A6
:1022E0000C940000662329F06A3019F0862F90E0E4
:1022F00008958FEF9FEF08950F93CF93DF93DC0145
:10230000ED91FC915089362F3770E0E8F0E002C083
:10231000F595E7953A95E2F73E2FA52FB0E0FC0141
:10232000C1ADD2AD669566956695E62FF0E0549FF7
:10233000E00DF11D1124EC0FFD1FEC01C658DF4F1D
:10234000011116C08881823018F49081932B9083FC
:102350008881813019F0908193279083369511F40C
:10236000319630E8215071F7DF91CF910F910895A8
:102370008881823018F49081932B908388818130FA
:1023800019F0908193279083EA0FFB1F215081F76A
:10239000EBCF80E0089580E0089596E0899FD0011A
:1023A0001124A05FB84F90967C936E935F9791E055
:1023B00091969C939197E0917D07F0917E07909183
:1023C0007C07992339F0309751F0811108C0809132
:1023D0002C070994309719F05C968C91FACF0895E8
:1023E000AF92BF92CF92DF92EF92FF920F931F9323
:1023F000CF93DF936C017B018B01040F151FEB0161
:102400005E01AE18BF08C017D10759F06991D60117
:10241000ED91FC910190F081E02DC6010995892B89
:1024200079F7C501DF91CF911F910F91FF90EF9048
:10243000DF90CF90BF90AF900895FC01538D448DF5
:10244000252F30E0842F90E0821B930B541710F05F
:10245000CF96089501970895FC01918D828D98176C
:1024600061F0A28DAE0FBF2FB11D5D968C91928D44
:102470009F5F9F73928F90E008958FEF9FEF089575
:10248000FC01918D828D981731F0828DE80FF11D3E
:10249000858D90E008958FEF9FEF0895FC01918D59
:1024A000228D892F90E0805C9F4F821B91098F7352
:1024B0009927089581EF95E00E944E1221E0892B23
:1024C00009F420E0822F089580E090E0892B29F024
:1024D0000E945A1281110C9400000895FC01A48DF1
:1024E000A80FB92FB11DA35ABF4F2C91848D90E036
:1024F00001968F739927848FA689B7892C93A08919
:10250000B1898C91837080648C93938D848D9813A2
:1025100006C00288F389E02D80818F7D8083089535
:10252000EF92FF920F931F93CF93DF93EC0181E023
:10253000888F9B8D8C8D98131AC0E889F9898081CA
:1025400085FF15C09FB7F894EE89FF896083E889FD
:10255000F98980818370806480839FBF81E090E0EF
:10256000DF91CF911F910F91FF90EF900895F62E7C
:102570000B8D10E00F5F1F4F0F731127E02E8C8D16
:102580008E110CC00FB607FCFACFE889F98980815B
:1025900085FFF5CFCE010E946E12F1CFEB8DEC0FCF
:1025A000FD2FF11DE35AFF4FF0829FB7F8940B8F78
:1025B000EA89FB8980818062CFCFCF93DF93EC01E2
:1025C000888D8823B9F0AA89BB89E889F9898C911B
:1025D00085FD03C0808186FD0DC00FB607FCF7CFD7
:1025E0008C9185FFF2CF808185FFEDCFCE010E94D7
:1025F0006E12E9CFDF91CF910895833081F028F4F6
:10260000813099F08230A9F008958730A9F08830A0
:10261000C9F08430B1F4809180008F7D03C0809137
:1026200080008F7780938000089584B58F7784BD74
:10263000089584B58F7DFBCF8091B0008F77809314
:10264000B00008958091B0008F7DF9CFCF93DF93D4
:10265000282F30E0F901E255FF4F8491F901E65649
:10266000FF4FD491F901EA57FF4FC491CC23A1F059
:1026700081110E94FD12EC2FF0E0EE0FFF1FE458D5
:10268000FF4FA591B491EC91ED2381E090E009F426
:1026900080E0DF91CF91089580E090E0FACF862F1F
:1026A0000C9426131F93CF93DF93282F30E0F9016A
:1026B000E255FF4F8491F901E656FF4FD491F9019D
:1026C000EA57FF4FC491CC23A9F0162F81110E9425
:1026D000FD12EC2FF0E0EE0FFF1FEE58FF4FA5911B
:1026E000B4918FB7F894EC91111108C0D095DE2306
:1026F000DC938FBFDF91CF911F910895DE2BF8CF30
:10270000862F642F0C945213CF93DF9390E0FC013B
:10271000E656FF4F24918A579F4FFC0184918823EE
:10272000C9F090E0880F991FFC01E859FF4FA5916F
:10273000B491FC01EE58FF4FC591D49161110DC0C9
:102740009FB7F8948C91209582238C9388812823BD
:1027500028839FBFDF91CF910895623051F49FB7D6
:10276000F8943C91822F809583238C93E8812E2BC3
:10277000EFCF8FB7F894EC912E2B2C938FBFEACF2D
:10278000862F642F0C9484133FB7F8948091D4045F
:102790009091D504A091D604B091D70426B5A89BFA
:1027A00005C02F3F19F00196A11DB11D3FBFBA2FE3
:1027B000A92F982F8827BC01CD01620F711D811DA3
:1027C000911D42E0660F771F881F991F4A95D1F728
:1027D00008958F929F92AF92BF92CF92DF92EF9225
:1027E000FF926B017C010E94C4134B015C01C11478
:1027F000D104E104F104B9F00E94C4136819790905
:102800008A099B09683E73408105910580F321E0A8
:10281000C21AD108E108F10888EE880E83E0981EFC
:10282000A11CB11CE4CFFF90EF90DF90CF90BF9040
:10283000AF909F908F9008952FB7F8946091D00437
:102840007091D1048091D2049091D3042FBF089548
:102850000F931F93CF93DF93C82FD62F86E0C89F87
:10286000F0011124E05FF84F11A2878D90A1813013
:102870009105F1F058F082309105F1F1039709F4D8
:1028800040C0DF91CF911F910F9108956623C9F346
:1028900061E070E08C2F0E94CD110E941C146093A7
:1028A00068077093690780936A0790936B07E9CF75
:1028B0000E941C14009168071091690720916A0713
:1028C00030916B07AB01BC01401B510B620B730BCA
:1028D00080917A0790917B07B0E0A0E0841795077C
:1028E000A607B70748F462E070E08C2FDF91CF9124
:1028F0001F910F910C94CD1163E070E0D111C1CF05
:10290000F4CF70E060E0F1CF089585ED8093BC00D6
:102910008091BC0084FDFCCF1092A9040895209101
:102920008504260F3327331F21323105ECF4209123
:10293000A904FC0190E080E0243069F082E0089571
:10294000A09185042191AC014B595B4FA40FB52F89
:10295000B11D2C930196861798F380918504680F1A
:102960006093850480E0089581E0089508958FEFD5
:102970009FEF08958FEF9FEF08958091640490E09A
:102980009195819591090895CF93DF93CB01EA0149
:10299000642F0E948F14CE01DF91CF910895CF93C1
:1029A000DF931F92CDB7DEB7698361E0CE01019658
:1029B0000E948F1481E090E00F90DF91CF910895F5
:1029C000DC011A96ED91FC9130E020E009941F9310
:1029D000CF93DF93EC01A881B981683109F49BC0E2
:1029E00038F4643109F489C0673149F080E00EC0E1
:1029F000693109F4D4C06032C9F76AE488C01C9612
:102A00008C9180FD3FC0411105C081E0DF91CF91E5
:102A10001F910895F90181919F014150DFB7F8940A
:102A2000A0915204B0915304C0915104E0914F041D
:102A3000F091500470914E0460914D0481110EC0CC
:102A40008C918C238C9388E09081972B908390813C
:102A5000962390838150C1F7DFBFD5CF10914C04EE
:102A600098E05C9187FF0CC0512B5C935081572BF1
:102A70005083880F508156235083915091F7ECCFAB
:102A80005C23F3CF442309F4C0CFF90181919F0166
:102A90004150DFB7F894A0915204B0915304C09113
:102AA0005104E0914F04F091500460914E047091F4
:102AB0004D0481110EC08C918C238C9388E0908101
:102AC000972390839081962B90838150C1F7DFBF2D
:102AD000D9CF10914C0498E05C9187FF0CC0512B2A
:102AE0005C93508157235083880F5081562B50831D
:102AF000915091F7ECCF5C23F3CF11964C9169E4A0
:102B00000E94E014E881F9814485417060E4CE01BF
:102B10000E94E0147ACF4C9169E40E94E014A881ED
:102B2000B981EA85FB8530E020E012964C916CE299
:102B3000CE0109958F8D90E0FC01EA57FF4FE4919B
:102B4000F0E0EE0FFF1FEE58FF4F259134913093C8
:102B5000500420934F04FC01E656FF4FE491E093AC
:102B60004E04E095E0934D0488A190E0FC01EA5703
:102B7000FF4FE491F0E0EE0FFF1FEE58FF4F25915D
:102B800034913093530420935204FC01E656FF4FD6
:102B9000E491E0934C04E095E093510436CFEA854C
:102BA000FB8530E020E013964C916CE20995E881BA
:102BB000F981418169E4ABCFDC011696ED91FC917E
:102BC00030E020E040E069E10994DC011696ED91E7
:102BD000FC9130E020E040E068E109949A01DC01DA
:102BE0001696ED91FC91462F67E10994EF92FF92C2
:102BF0000F931F93CF93DF931F92CDB7DEB77C0166
:102C00008B01D8016C91673129F150F46531A0F442
:102C10000F90DF91CF911F910F91FF90EF9008954A
:102C20006A3118F16E3FA1F7F8014181498369E2E9
:102C3000C7010E94E0140BC0F80141814983D7010C
:102C40001696ED91FC9130E020E0C70109950E5FEA
:102C50001F4FD7CFF80181818983AE014F5F5F4F4E
:102C600061E0C7010E94EE15F2CF0F5F1F4FD70141
:102C70001696ED91FC9130E020E040E0C701099507
:102C8000C0CF462FDC011696ED91FC9130E020E09C
:102C900065E10994AF92BF92CF92DF92EF92FF92DB
:102CA0000F931F93CF93DF93EC01693089F481E593
:102CB00091E0998388831C8A81E0DF91CF911F91F5
:102CC0000F91FF90EF90DF90CF90BF90AF9008955D
:102CD00079016B3009F440C06F3009F444C080E0E2
:102CE0006A3059F7EA85FB8530E020E040E068E291
:102CF000CE010995EE81FF8130E020E040E064E103
:102D0000CE01099541E06BE4CE010E94E014E88118
:102D1000F981448169E2CE010E94E01440E06BE455
:102D2000CE010E94E014E881F981448169E2CE017C
:102D30000E94E01441E06BE4CE010E94E014E881BF
:102D4000F981458169E2CE010E94E0146EE371E0F1
:102D5000CE010E94F615B0CF67E371E04423C1F3C2
:102D60006CE271E0F5CFF9010481000F000F000F54
:102D700013811695003210F00052185FCE010E94A8
:102D8000E515F701A080B1806EE3CE010E944116E7
:102D90006EE3CE010E944116D12C1068602F6D0D9C
:102DA0006068CE010E944116612FCE010E9441163B
:102DB000F701C280A5016C2DCE010E94EE15AC0C6E
:102DC000B11CD394F8E0DF12E9CFCE010E94DC15EC
:102DD00073CF9A01DC011896ED91FC91462F67E1C3
:102DE0000994CF93DF931F92CDB7DEB76983AE010D
:102DF0004F5F5F4F61E00E94E9160F90DF91CF9126
:102E00000895CF92DF92EF92FF920F931F93CF938B
:102E1000DF93EC01142F79016631C1F130F4643194
:102E200049F06531A9F080E040C0673109F446C03F
:102E30006A31C8F7E885F9859701412FCE01DF9106
:102E4000CF911F910F91FF90EF90DF90CF90099459
:102E500068EF0E94F11641E06CE2CE010E94E0149E
:102E6000612F607FCE010E94F11641E06CE2CE013D
:102E70000E94E014612F6295607FCE010E94F116DE
:102E800041E06CE2CE010E94E0140EC068EF0E94A7
:102E9000F116612F607FCE010E94F116612F6295BD
:102EA000607FCE010E94F11681E0DF91CF911F91EA
:102EB0000F91FF90EF90DF90CF9008956AEF0E94FE
:102EC000F11641E06CE2CE010E94E014DE2CCF2C22
:102ED000012F083008F5012F069506950695D12E8D
:102EE00088EF089FD00C1124E8E00E9F8001112488
:102EF0000E0D1F1DDD2021F2F801F1908F016F2DC5
:102F0000607FCE010E94F1166F2D6295607FCE0129
:102F10000E94F116DA94EECFA4E5B4E0ED2DFC2D7D
:102F20009F01285F3F4F8191982F907F9C938295BE
:102F3000807F11968C9311971296E217F30799F7F9
:102F4000DE2ECF2E085044E554E060E1CE010E9411
:102F5000E916BFCF0F93DC01DF963C91DF97431B4F
:102F6000D596ED91FC9109950F910895CF93DF933C
:102F7000FC01A081B18183AD982F990F990F990F12
:102F800096AF50969C915097903208F09FE1990F20
:102F9000990F990F95AF24AD922F990F990F990F13
:102FA00097AF51963C915197682F620F7727771F03
:102FB0003617170614F4832F821BEF01C05CDF4F16
:102FC00098832196880F880F880F890F8883219610
:102FD00080EF888354968D919C915597813F910500
:102FE00008F48883ED5BFF4F56968C918083DF91C8
:102FF000CF9108950F93FC01EA5BFF4F308131962A
:103000005081451730F4301738F0041728F080E06D
:1030100013C03017D0F3FBCFFC01EC5BFF4F3081C6
:103020008B5B9F4FFC018081681740F481E0321771
:1030300018F081E0261758F70F9108953217C8F35A
:10304000E6CF2F923F924F925F926F927F928F9234
:103050009F92AF92BF92CF92DF92EF92FF920F9327
:103060001F93CF93DF93EC014C0184E4880E911CF5
:10307000F4011082329720805E01F5E4AF0EB11C9E
:10308000F5012082359730806E01F6E4CF0ED11C19
:10309000F6013082359740807E01F7E4EF0EF11C97
:1030A000F7014082349610813297608031967080AB
:1030B00032975080012F262D472D652DCE010E947D
:1030C000FA17CC58DF4F811114C01882DF91CF91CD
:1030D0001F910F91FF90EF90DF90CF90BF90AF9036
:1030E0009F908F907F906F905F904F903F902F9028
:1030F000089581E08883552011F0F4015082621414
:1031000010F4F5016082371410F4F6017082141582
:10311000E8F6F7011083DACF0F93DC01802FFD0171
:10312000EC58FF4F90819923E9F12223D9F1223005
:1031300020F0023079F56F5F621B082F0170FD01EE
:1031400080FD32C0EA5BFF4F8081481758F131960D
:103150008081481738F53297908131978081260F0A
:103160002617F0F46917D8F42FEF290F8217D0F43F
:10317000681708F4682F291708F4922F961BD79622
:10318000ED91FC91D8970480F581E02D292FCD0198
:10319000099508C0033089F64F5F421BCECF682FD8
:1031A000691720F30F910895EC5BFF4F808168173A
:1031B000C8F3319680816817A8F7329690813197CD
:1031C0008081240F241778F4491760F42FEF290F1A
:1031D000821740F7481708F4482F291708F4922F50
:1031E000941BCDCF482F4917E8F6F2CF213039F0A4
:1031F00020F0223031F0840F0895860F0895841B4B
:103200000895861B0895213039F020F0223031F0E6
:10321000861B0895840F0895860F0895841B0895D2
:103220005F926F927F928F929F92AF92BF92CF9256
:10323000DF92EF92FF920F931F93CF93DF935C0186
:10324000162F642EEC01C05BDF4FDC80ED804C015B
:103250008AE7880E911CFE80FD18C12EF11608F435
:10326000CF2C5B800C85202F4E2D6D2D8A810E94E6
:10327000F618782E202F4E2D6D2D852D0E940319C6
:10328000482F662071F08A85F40180832C2D672DEC
:10329000C5010E948C181F1548F01F19E394D12C0A
:1032A000DACF89858111F7CF8B85EECF1D0D1C8379
:1032B000ED82DF91CF911F910F91FF90EF90DF9002
:1032C000CF90BF90AF909F908F907F906F905F90C6
:1032D0000895DC0118964C911897ED91FC91119787
:1032E000249130E0042E02C0359527950A94E2F728
:1032F000842F860F883068F031961196FC93EE93F8
:10330000E49198E0941B01C0EE0F9A95EAF72E2BFA
:10331000885018968C938FEF9FEF01C0880F6A95A5
:10332000EAF7809582230895FC01E60FF11D849150
:1033300090E0982F88273196E4918E0F911D089583
:10334000CF93DF932091CF073091D007281739070B
:1033500009F490C0EC019093D0078093CF07FC0153
:1033600084918093E0073196E491E093E107FE01B8
:103370003296E491E093E207FE013396E491E09304
:10338000E307FE013496E491E093E407FE013596ED
:10339000E491E093E507FE013696E491E093E607B9
:1033A000FE013796E491E093E707FE013896E49139
:1033B000E093E807FE013996E491E093E907FE0106
:1033C0003A96E491E093EA07FE013B96E491E0939C
:1033D000EB07FE013C96E491E093EC07FE013D967D
:1033E000E491E093ED07FE013E96E491E093EE0751
:1033F000FE013F96E491E093EF07FE017096E491A1
:10340000E093F00761E1CE010E9494199093F207D6
:103410008093F10763E1CE010E9494199093F40721
:103420008093F30765E1CE010E9494199093F6070B
:103430008093F5078091CF079091D007892BD1F029
:103440008091ED078093F9074091EE074093FA07CA
:103450009091F807992371F0913079F49091EF07EA
:10346000891714F49093F9078091F007841714F4E6
:103470008093FA07DF91CF9108953091EA07209168
:10348000EC07082E000C990B622F022E000C770B14
:10349000630F711D37FD7A95861797071CF4320F5D
:1034A0003093F907241734F72093FA07E3CF6F928C
:1034B0007F928F929F92AF92BF92CF92DF92EF92C4
:1034C000FF920F931F93CF93DF93EC01062F142FDE
:1034D0007901FC01E45AFF4F8081813009F445C035
:1034E000D0F1823009F44BC0833009F452C0FE01A0
:1034F000EE5AFF4F00833196108337978081918178
:1035000047962FEFE216F10411F008F0E6C0E1E66D
:10351000EE16F10408F447C0FE01E059FF4F208188
:103520003181820F931F9C012F5F3F4FF90144911E
:10353000411142C0712C872DDF91CF911F910F91C6
:10354000FF90EF90DF90CF90BF90AF909F908F90C3
:103550007F906F900895FE01E25BFF4F0190F08134
:10356000E02DCE010995180FC2CFFE01E25BFF4F9F
:103570000190F081E02DCE010995081BB8CFFE0126
:10358000E25BFF4F0190F081E02DCE010995181B01
:10359000AECFFE01E25BFF4F0190F081E02DCE0146
:1035A0000995080FA4CFF1E4EF16F10408F4BBCF9E
:1035B000FE01E259FF4FB3CFFC0144914E151F04A9
:1035C00009F086C00296009709F4B4CF7E01F0E5B9
:1035D000EF0EF11CF7019183808310867196608154
:1035E000C7010E946919F701868372966081C7013D
:1035F0000E946919A82EF70187836E01FAE7CF0EA2
:10360000D11CF6019081F701928781E0911180E051
:10361000F7018387FE01ED59FF4FB0806B2DC70185
:103620000E946919882EFE01EC59FF4F1081612F0D
:10363000C7010E946919982EFE01EB59FF4F0081C6
:10364000602FC7010E946919015041E050E09A01C2
:1036500001C0220F0A95EAF7782E721AF701068147
:1036600010160CF068CFBA94CA0101C0880FBA9442
:10367000EAF7881AB4849A0C115001C0440F1A95C5
:10368000EAF7F42FF9199F2E2B2D4F2F682DF701F4
:1036900082810E94F618182FF70182832B2D492D65
:1036A000682D83810E940319F7018383F1E0BF161F
:1036B00009F47CC0BF1608F43FC022E0B21609F43A
:1036C0007BC093E0B91609F482C0082F212F38C0BF
:1036D000F9012491820F911D26CFFE01EE58FF4F74
:1036E00000811181080F191F680160E0C6010E9466
:1036F0009419080F191F62E0C6010E949419F4E0A2
:10370000CF0ED11C8E159F0580F3F801849190E0B7
:10371000982F88273196E4918E2B009709F40ACFD1
:10372000E816F90619F4C80103964DCFF801329650
:10373000E4910E0F111DE9CF202F210F082F0A0D44
:10374000482F612FCE010E94FA17882309F4F3CE87
:10375000F701148215828E01015A1F4F4E01F0E6C7
:103760008F0E911CF8016081C7010E946919682EB3
:10377000F4016081C7010E946919B82E40E0662DEE
:10378000CE010E94101941E06B2DCE010E9410194C
:1037900061E0C7010E9469198111F0CFF7018581AD
:1037A0008A1504F38285F6018083C5CEBA1821E01C
:1037B000210F080F1B0DC4CF91E0392F301B21E0E2
:1037C000210F9A1901E0080F890F130FB9CF212F8C
:1037D0002A0D982F901B01E0080F81E0890FB0CFD0
:1037E000FF920F931F93CF93DF93C82FD62F109282
:1037F0009C078A01F12CF80161918F01E091850706
:10380000F091860783E897E009958F3F9807F1F0DC
:103810008E3F2FEF920779F39C014D2F6C2F83E899
:1038200097E00E94571A9091DF07913049F030F0ED
:10383000923041F0933041F0F80EDDCFC80FFCCF4D
:10384000D80FFACFC81BF8CFD81BF6CF8F2DDF913A
:10385000CF911F910F91FF90089522E731E13093AE
:103860008607209385070C94F01BCF93DF93EC0120
:103870006CAFEFA9F8AD0190F081E02D0995EFA9AB
:10388000F8AD0280F381E02DCE01DF91CF91099454
:10389000AF92BF92CF92DF92EF92FF920F931F935E
:1038A000CF93DF9300D000D01F92CDB7DEB78C014D
:1038B000DC01DB96AC90DB97DC96EC90DC97ED912D
:1038C000FC91B188FE2CD12CC12CD801ED91FC913A
:1038D00011978089D9962D913C911C82FD828B8312
:1038E000B8E08B9FC00111248C9DA0018D9D500DCF
:1038F0009C9D500D1124240F351F3A832983D80134
:103900001496ED91FC919E012F5F3F4F41E06FE0D7
:10391000C8010995F3948F2D8E198A1528F4BFEFED
:10392000CB1ADB0AFB1488F20F900F900F900F90C8
:103930000F90DF91CF911F910F91FF90EF90DF904B
:10394000CF90BF90AF9008950F931F93CF93DF93C5
:103950008C01C62F642FCC32E8F4CA3208F041C083
:10396000C83271F1C93209F442C080E0C034D0F1EC
:10397000CF73F801EC0FF11D878D8F3F91F1C031AE
:10398000E0F00E94261321E0892B09F420E0F801E1
:10399000228F27C0CD3289F140F384EB8C0F823027
:1039A00020F7CF73C00FD12FD11D8F8D411133C0A0
:1039B00061E00E94841360E08F8D0E94521311C059
:1039C000015E1F4FD0E0F80181918F018F3F31F0F0
:1039D00061E0D03108F062E00E948413DF5FD631ED
:1039E00091F781E0DF91CF911F910F91089570E0E1
:1039F00090E080E00E94E913F4CF85E090E043304E
:103A000010F082E090E0880F991F880F991F0597AA
:103A10000197F1F7E6CF62E00E948413E2CF1092A3
:103A2000E104109284051092760510925D051092C3
:103A30004205109234051092260510922505109229
:103A4000E0041092DF040895811110C080912405D4
:103A5000882361F08091DE04811108C060E08CE071
:103A60000E94521361E08DE00C94521361E08CE0EF
:103A70000E94521360E0F7CF809124058823F1F073
:103A800082E00E942613892BC9F48091AE05811132
:103A900016C081E08093AE050E94241D81E090E075
:103AA0009093B0058093AF050E941C146093AA0503
:103AB0007093AB058093AC059093AD05089580910C
:103AC000AF059091B0050196EBCF80912405882336
:103AD000F1F083E00E942613892BC9F48091EE0552
:103AE000811116C081E08093EE0581E090E0909313
:103AF000F0058093EF050E94241D0E941C14609322
:103B0000EA057093EB058093EC059093ED0508951D
:103B10008091EF059091F00501969093F0058093C8
:103B2000EF05EBCFCF92DF92EF92FF920F931F93AF
:103B3000CF93DF936C01EB017B01E40EF51E10E0E7
:103B400000E0CE15DF0561F06991D601ED91FC91A1
:103B50000190F081E02DC6010995080F191FF1CFE2
:103B6000C801DF91CF911F910F91FF90EF90DF90EF
:103B7000CF9008950F931F93CF93DF93EC018C01A7
:103B80000C5F1F4FFC01E058FF4F0190F081E02DCA
:103B9000C80109958E3F2FEF920770F4FE01ED5793
:103BA000FF4FCE57DF4F9C0140816881C8010E94C2
:103BB000571A9881890F888381E090E0DF91CF9137
:103BC0001F910F910895089590E080E00895CF929D
:103BD000DF92EF92FF92CF93DF93CDB7DEB72A97B4
:103BE0000FB6F894DEBF0FBECDBF0E941C1428EEA6
:103BF00033E040E050E00E94ED3069017A01C0926C
:103C0000B105D092B205E092B305F092B4051092DE
:103C100050050E940F1D21E02093A2051092D904A7
:103C20001092D80480910E0790910F0704970CF022
:103C300043C01092C2050E941C14CB014AE0BE0191
:103C40006F5F7F4F0E949A30BE016F5F7F4F86EBA0
:103C500095E00E943A31BE016F5F7F4F82EC95E0A4
:103C60000E943A3180910E0790910F0767E971E049
:103C7000039711F064EA71E082EC95E00E942F3125
:103C80008EE190E0909309018093080110920F0754
:103C900010920E071092A5051092A405109224050B
:103CA00081E00E94241D1092A6051092A705109293
:103CB000A8051092A90536C08091A6059091A70588
:103CC000A091A805B091A9050097A105B105C1F281
:103CD000C81AD90AEA0AFB0A8091080190910901E1
:103CE000092E000CAA0BBB0B8C159D05AE05BF055C
:103CF00038F22093240510925C0510925B0582E057
:103D000090E090930F0780930E071092A5051092F4
:103D1000A40581E090E0909307018093060180E084
:103D20000E94241D2A960FB6F894DEBF0FBECDBFA9
:103D3000DF91CF91FF90EF90DF90CF900895EF92B9
:103D4000FF920F931F93CF93DF93CDB7DEB72E97DC
:103D50000FB6F894DEBF0FBECDBF7C0110922505D3
:103D600002EC15E0F80110820E941C14CB014AE01D
:103D7000BE016F5F7F4F0E949A304AE0BE01655FCF
:103D80007F4FC7010E949A304AE0BE01635F7F4FB8
:103D900080910E0790910F070E949A30BE016F5FCD
:103DA0007F4F86EB95E00E943A31BE016F5F7F4FF7
:103DB000C8010E943A316BEA71E0C8010E942F31BC
:103DC000BE01635F7F4FC8010E942F3163EB71E03A
:103DD000C8010E942F31BE01655F7F4FC8010E945C
:103DE0002F31F80101900020E9F7319710822E96CB
:103DF0000FB6F894DEBF0FBECDBFDF91CF911F91FC
:103E00000F91FF90EF900895FC01A081B181509631
:103E10002C9183AD38E0839FC0011124289FA0011D
:103E2000299F500D112470E060E081AD92AD0C949B
:103E300015311F93CF93DF93EC010E94481C1CADFA
:103E40008BAD180FE881F9818189181768F0EC8132
:103E5000FD8130E020E040E060E1CE01099580E0A6
:103E6000DF91CF911F910895FE01E558FF4F8081AA
:103E7000882319F0CE010E94041F612FCE010E94F9
:103E8000351C81E0EDCFCF93DF93EC01FC01E558C9
:103E9000FF4F8081882319F0CE010E94041F60E04B
:103EA000CE01DF91CF910C94351C1F920F920FB66B
:103EB0000F9211242F933F934F935F936F937F93B0
:103EC0008F939F93AF93BF93EF93FF9381EF95E011
:103ED0000E946E12FF91EF91BF91AF919F918F91D0
:103EE0007F916F915F914F913F912F910F900FBEF6
:103EF0000F901F9018951F920F920FB60F921124DA
:103F00002F938F939F93EF93FF93E0910106F0918E
:103F100002068081E0910706F091080682FD1BC031
:103F2000908180910A068F5F8F7320910B06821714
:103F300041F0E0910A06F0E0EF50FA4F958F809340
:103F40000A06FF91EF919F918F912F910F900FBED5
:103F50000F901F9018958081F4CF1F920F920FB68B
:103F60000F9211242F933F938F939F93AF93BF93FF
:103F70008091D0049091D104A091D204B091D30447
:103F80003091CF0423E0230F2D3758F50196A11D62
:103F9000B11D2093CF048093D0049093D104A093BB
:103FA000D204B093D3048091D4049091D504A0910D
:103FB000D604B091D7040196A11DB11D8093D404FD
:103FC0009093D504A093D604B093D704BF91AF913A
:103FD0009F918F913F912F910F900FBE0F901F9047
:103FE000189526E8230F0296A11DB11DD2CF1F926E
:103FF0000F920FB60F9211242F933F934F935F931D
:104000006F937F938F939F93AF93BF93EF93FF93A0
:10401000E0910201F09103010995FF91EF91BF91A9
:10402000AF919F918F917F916F915F914F913F9150
:104030002F910F900FBE0F901F9018951F920F9207
:104040000FB60F9211242F933F934F935F936F936B
:104050007F938F939F93AF93BF93EF93FF93E091E1
:104060000001F09101010995FF91EF91BF91AF918E
:104070009F918F917F916F915F914F913F912F9180
:104080000F900FBE0F901F9018951F920F920FB6B2
:104090000F9211242F933F934F935F936F937F93CE
:1040A0008F939F93AF93BF93EF93FF938091B9004A
:1040B000887F803609F44AC0F0F5883209F4A5C03B
:1040C00018F5803109F499C0B8F4882309F4F5C0D3
:1040D000883009F492C0FF91EF91BF91AF919F9109
:1040E0008F917F916F915F914F913F912F910F90A1
:1040F0000FBE0F901F901895883109F486C080324A
:1041000051F78093A80414C0803409F49BC040F494
:104110008033B9F38833F9F68093A80485ECAEC0F8
:10412000803509F483C0883509F494C0883499F641
:104130000E948514D0CF883909F48AC038F58837B1
:1041400029F050F4883611F0803729F683E0809307
:10415000A9041092A70455C0883809F479C08039A1
:1041600019F0803809F0B7CF8091A704803208F0A9
:104170006FC0E091A70481E08E0F8093A704809127
:10418000BB00F0E0E957FB4F80833BC0803B39F038
:10419000D0F4803A09F477C0883A09F09CCF84E0E3
:1041A0008093A9041092860410928504F0E0E0E068
:1041B00009958091850481110FC081E08093850469
:1041C0001092650409C0803C09F4A8CF883C09F42A
:1041D000A5CF883B09F07FCFE091860481E08E0F68
:1041E00080938604F0E0EB59FB4F80818093BB0005
:1041F000909186048091850429C08091CE0480939B
:10420000BB0085EC8093BC0066CF9091CD0480917B
:10421000CC04981758F5E091CD0481E08E0F80937F
:10422000CD04F0E0E455FB4F8081E9CFE091CD046F
:1042300081E08E0F8093CD048091BB00F0E0E455C7
:10424000FB4F80839091CD048091CC049817C8F2E5
:1042500085E8D8CFE091CD0481E08E0F8093CD0426
:104260008091BB00F0E0E455FB4F80838091AB046C
:1042700081115ECF81E08093AA0484EA8093BC0020
:104280001092A90428CF85EC8093BC001092A90459
:104290008091A704803230F4E091A704F0E0E95760
:1042A000FB4F10826091A70470E087E894E0F0E093
:1042B000E0E009951092A7040ECF1092A80438CF21
:1042C000CF931092F4051092F30588EE93E0A0E0EE
:1042D000B0E08093F5059093F605A093F705B093B1
:1042E000F8058DE691E09093F2058093F10585EC59
:1042F00090E09093FE058093FD0584EC90E0909310
:1043000000068093FF0580EC90E090930206809376
:10431000010681EC90E0909304068093030682EC02
:1043200090E0909306068093050686EC90E09093CB
:1043300008068093070610920A0610920B06109248
:104340000C0610920D06109282071092810782E7E8
:1043500091E1909300088093FF071092010810925A
:10436000020810929C0789E891E09093800780935F
:104370007F0710928407109283071092980710927B
:104380009B0710928F07109290071092910710923E
:1043900092078FEF8093990780939E07E2EAF7E0F8
:1043A00088EB97E0CFEFC1938E179F07E1F78AE480
:1043B00096E1909388078093870781E097E1909337
:1043C0008A078093890787EE94E190938C07809306
:1043D0008B0784EA9CE190938E0780938D0730E0F1
:1043E00020E040E069E083E897E00E944A161092DE
:1043F000D0071092CF078CE791E19093B907809393
:10440000B8078EE896E09093BD078093BC0781E0E3
:104410008093BE071092BF071092DC071092FC0732
:104420008093FD078093FE0781E991E09093BB079D
:104430008093BA0783E897E00E94B6171092CB07E3
:104440001092CD07C093CC07C093CE07E091BA0776
:10445000F091BB070280F381E02D83E897E0099596
:104460008BEC91E19093D2078093D1071092DF07F4
:104470008FE08093A20780E18093A30781E180937E
:10448000AB078EE08093AD071092120710921607CB
:1044900010921507109217078FE791E0909311077C
:1044A00080931007ECE2F7E01082148213821582E9
:1044B000369687E0E836F807B9F78DE091E09093FB
:1044C0007307809372078AE091E090937507809359
:1044D000740784E08093760783E08093770781E117
:1044E00091E090937107809370078AE090E0909339
:1044F00079078093780784EF91E090937B0780930E
:104500007A0710927E0710927D0710926C07109226
:104510006D0710926E0710926F0710927C07109231
:104520000F0710920E07CF910895CF93DF93CDB769
:10453000DEB7CE56D1090FB6F894DEBF0FBECDBFA1
:10454000789484B5826084BD84B5816084BD85B56E
:10455000826085BD85B5816085BD80916E0081607A
:1045600080936E0010928100809181008260809320
:104570008100809181008160809381008091800022
:104580008160809380008091B10084608093B1004D
:104590008091B00081608093B00080917A00846047
:1045A00080937A0080917A00826080937A00809173
:1045B0007A00816080937A0080917A00806880938D
:1045C0007A001092C100E0910106F091020682E0AB
:1045D0008083E091FD05F091FE051082E091FF05DA
:1045E000F09100068FEC808310920906E091050699
:1045F000F091060686E08083E0910306F0910406C0
:10460000808180618083E0910306F09104068081BF
:1046100088608083E0910306F091040680818068C1
:104620008083E0910306F091040680818F7D808372
:1046300014BE61E08EE00E94841361E08FE00E946E
:10464000841361E080E10E94841361E081E10E94B3
:104650008413E0918707F091880730E020E040E084
:104660006AE083E897E0099583E897E00E94431F9A
:1046700083E897E00E94191F8111FACF60E083E878
:1046800097E00E94351CE0918707F091880730E0A1
:1046900020E040E06BE083E897E0099562E083E08A
:1046A0000E94841362E082E00E94841361E08DE046
:1046B0000E94841361E08CE00E94841385E69DE1F2
:1046C000909303018093020180916900837F886049
:1046D00080936900E99A8CE39DE1909301018093B6
:1046E0000001809169008C7F826080936900E89A64
:1046F00010E000E0F12CE12C8EEEC82E84E0D82EE4
:1047000090E0A92E95E0B92EC7010E94D7308823EA
:1047100009F455C02EE7E216F10409F450C08B33BA
:1047200031F40F5F1F4FFFEFEF1AFF0AEDCF01309B
:10473000110539F154F401151105A9F791E08233FF
:1047400009F490E090932305EECF0230110501F1BA
:104750000330110541F7F50101900020E9F79F01B1
:1047600021503540A9014F5F5F4F49315105D8F6BF
:1047700020503B4FD9018C9340505B4FFA0110827F
:10478000D2CF91E0823309F490E090930401CBCF33
:10479000D6010D900020E9F79D012F5E3440A9015C
:1047A0004F5F5F4F4231510508F0BDCF22513B4F63
:1047B000F901808342515B4FDA011C92B4CF8091A2
:1047C0000005811106C060E075E08FEC91E00E9469
:1047D0003A3181E00E94241D18EE412E13E0512E43
:1047E000612C712C8E010F5F1F4F9E01285C3F4F83
:1047F000AD963FAF2EAFAD9781E080937C070E94CE
:104800001C14C0906C07D0906D07E0906E07F0907C
:104810006F07AB01BC014C195D096E097F098091DE
:10482000780790917907B0E0A0E084179507A60774
:10483000B70708F066C1F12C80917607F81660F48E
:10484000E0917207F0917307EF0DF11D62E0808136
:104850000E948413F394F0CF312C8091770738169F
:1048600008F064C0C32CD12CE0917407F091750757
:10487000EC0DFD1D61E080810E948413E0917407BE
:10488000F0917507EC0DFD1D60E080810E945213D0
:1048900081E090E0A0E0B0E0032C04C0880F991FF5
:1048A000AA1FBB1F0A94D2F74C015C01A094B094DC
:1048B000212C80917607281610F5E22CF12CE0913E
:1048C0007207F0917307EE0DFF1D80810E94261381
:1048D000A7014C5F5F4FFA01EE0FFF1FE05FF84F3B
:1048E000892B41F480819181882999299183808342
:1048F0002394DFCF808191818A219B21F7CFE091A2
:104900007407F0917507EC0DFD1D61E080810E9438
:1049100052138091740790917507C80ED91E60E0FC
:10492000D6018C910E948413339497CFA0E1AA2ED4
:10493000A7E0BA2E8CE497E07501F701278D30A12E
:10494000232B31F4148E2FEF3FEF368F258F11A2DA
:1049500036E0E30EF11C8E159F0579F7912CF6E0F9
:104960003F2E80917607981608F053C0812CC92CF1
:10497000D12CCC0CDD1CA601485E584F6A01209159
:104980007707821608F043C0D6016D917C91082C00
:1049900002C0769567950A94E2F7929E90011124E1
:1049A000280D311DE0E1F7E080E0458D568D24179C
:1049B000350711F40C944D308F5F36968A30A9F785
:1049C00060FF23C0E0E1F7E090E080E0448D41111A
:1049D00017C0E0917007F0917107E20FF31F40815B
:1049E000389EF001399EF00D1124E05FF84F448F9E
:1049F000368F258F10A2178E61E00E94281405C003
:104A0000019636968A30910509F78394B8CF93942E
:104A1000A8CFD12CF50181A18111D82EF6E0AF0EDF
:104A2000B11CAE14BF04B1F70E941C1460936C0754
:104A300070936D0780936E0790936F07DD2009F4E4
:104A400060C080913107882309F45BC080912F07F3
:104A500090913007019709F054C0E0902C07E110C5
:104A600053C08091C205882379F10E941C14A301D0
:104A700092010E94ED3069017A018091DE04882361
:104A800009F416C28091DA049091DB04A091DC0451
:104A9000B091DD04281B390B4A0B5B0BDA01C9010D
:104AA0000297A105B10580F08091D8049091D904B6
:104AB000863091050CF4F7C11092DE041092C20505
:104AC0001092D9041092D80472E0A72EB12C1E01C6
:104AD000B4E22B0E311C81EF95E00E944E121816A5
:104AE00019060CF0C2C581EF95E00E942C128C33A0
:104AF00009F026C21092ED041092EC040E940F1DE2
:104B0000EACF10927C07ADCF0E941C14A301920142
:104B10000E94ED302093B1053093B2054093B30568
:104B20005093B4058091040140E331E3882311F0F0
:104B300041E332E39091230520E3992321F023E31D
:104B4000811101C022E380910E0790910F07009719
:104B5000E1F5E4120BC081E090E090930F078093A1
:104B60000E0790931A05809319057BCF3E1113C051
:104B700083E090E090930F0780930E0781E090E030
:104B800090930701809306019093A5058093A40557
:104B90000E949F1E66CF2E1118C084E090E0909373
:104BA0000F0780930E0782E090E09093A505809315
:104BB000A40581E08093A2051092500561EE71E09A
:104BC00084E895E00E943A314CCF2091A4053091C1
:104BD000A5052130310509F0B9C02AE2E2121CC056
:104BE0002091060130910701223031057CF080913F
:104BF000DE04811106C02150310930930701209352
:104C000006018091060190910701C2CF059709F432
:104C1000AFCF0E94E71D25CF80912505882389F01D
:104C200033E2E3120EC080910601909107012091BA
:104C3000DE042111E6CF01969093070180930601CF
:104C4000E0CF0E2C000CFF0840E3E41AF1081E141C
:104C50001F040CF006CF8091DF049091E0048E15C4
:104C60009F050CF4FECE81E090E0909307018093C5
:104C700006011092C2050E941C14CB014AE0B80143
:104C80000E949A304AE0BE016C5D7F4F80910E0712
:104C900090910F070E949A30B80186EB95E00E9430
:104CA0003A31B80182EC95E00E943A316BEA71E04A
:104CB00082EC95E00E942F31BE016C5D7F4F82EC4B
:104CC00095E00E942F316DEE71E082EC95E00E943C
:104CD0002F3166E775E051E0E516F104C1F06DE5AE
:104CE00075E082E0E816F10491F062E475E093E08B
:104CF000E916F10461F064E375E0A4E0EA16F1045A
:104D000031F0B5E0EB16F10431F466E275E082ECC7
:104D100095E00E942F31E2ECF5E001900020E9F7E8
:104D20003197108280910E0790910F07039709F039
:104D300098CE85E090E090930F0780930E0781E076
:104D400090E09093A5058093A4058BCE2230310589
:104D500009F085C010925D052E2D0E2C000C330B32
:104D6000205331092A30310590F4E0E5F5E0019057
:104D70000020E9F7E155F540EB30F10520F4E05B68
:104D8000FA4FE082118281E08093A2056ACEE3E2CD
:104D9000EE1242C08091DE04811163CE1092C205F2
:104DA0000E941C14CB014AE0B8010E949A304AE0EC
:104DB000BE016C5D7F4F80910E0790910F070E949E
:104DC0009A30B80186EB95E00E943A31B80182EC46
:104DD00095E00E943A316BEA71E082EC95E00E9426
:104DE0002F31BE016C5D7F4F82EC95E00E942F3128
:104DF0006DEE71E082EC95E00E942F3160E575E088
:104E000082EC95E00E942F31E2ECF5E00190002069
:104E1000E9F73197108225CE20915005222341F0E9
:104E2000E0E5F5E001900020E9F732971082ABCF82
:104E30009C01265031092230310568F485E090E06C
:104E400090930F0780930E0781E090E09093A50563
:104E50008093A405D6CE049709F003CEDACE089746
:104E6000F1F424303105D9F4FAE2EF12FACD85E0FD
:104E700090E090930F0780930E0781E090E090936D
:104E80000701809306019093A5058093A4050E94D5
:104E90009F1E1092240581E00E94241DE2CD2AE28B
:104EA000E212DFCDB6CE01969093D9048093D80458
:104EB00042EC55E0DA010D900020E9F7AD01435CCA
:104EC000554062EC75E081EF95E00E94F01142E000
:104ED00050E064EF71E081EF95E00E94F01181E015
:104EE0008093DE04C092DA04D092DB04E092DC040A
:104EF000F092DD048091D8049091D9041816190617
:104F00000CF4E2CD64EA71E082EC95E00E9441315C
:104F1000892B09F0D9CD83E897E00E94431F81E0F7
:104F200099E00E94A01947EF51E062E28FE00E94F1
:104F30002D1C83E897E00E94191F8111F0CFC4CD8A
:104F40008E3309F0B4C266EB75E081EE94E00E9406
:104F50001C31892B11F51092DE041092DA041092A4
:104F6000DB041092DC041092DD041092D90410923C
:104F7000D8041092B6051092C205809124058823AA
:104F800009F4A9CD80910E0790910F07029709F0BF
:104F9000A2CD80E00E94241D9ECD63E072E081EEF0
:104FA00094E00E944131892B09F400C118AE1CA283
:104FB00084E895E0FC0101900020E9F7CF018558D5
:104FC00095408097C0F467E072E084E895E00E9425
:104FD0006E30BC01CE01C8960E943A3188AD88235C
:104FE00051F067E072E090E080E00E946E30BC011A
:104FF000C1010E943A3169E072E0CE01C8960E9478
:105000001C31892B01F561E172E0C1010E941C3164
:1050100021E0892B09F020E020930401D12CC12C40
:10502000F12CE12C1982E114F10409F06AC080919D
:1050300023056AE272E0811102C06CE272E0C801ED
:105040000E943A316FC066E172E0CE01C8960E94BC
:105050001C31892B61F461E172E0C1010E941C31B5
:1050600021E0892B09F020E020932305D7CF6FE1C1
:1050700072E0CE01C8960E941C31892B09F5DE0131
:1050800094964EEE54E090E080E0BD019C012F5FCD
:105090003F4FFB0101900020E9F73197E61BF70B2A
:1050A0002231310549F08E179F0730F48D91FA01B6
:1050B0008193AF01C901EACFE251FB4F1082AECF1D
:1050C00065E272E0CE01C8960E941C31892B09F07E
:1050D00002CD80E095E0D101F10101900020E9F7D7
:1050E0003197E219F3099D01221933092E173F0761
:1050F00028F42D91FC012193CF01EECFE050FB4F1E
:10510000DDCF80910401F1E0EF16F10409F491CFB5
:1051100022E0E216F10479F58091EE046EEE74E07F
:1051200081118DCF8981882389F14601AF961FAF08
:105130000EAFAF976401F80101900020E9F73197B5
:10514000E01BF10B4FEF841A940AAF968EAD9FAD22
:10515000AF97801B910B8E179F07C0F4AF96AEAD33
:10516000BFADAF976D91AF96BFAFAEAFAF97C60172
:105170000E94DF30DFCF33E0E316F10499F680912F
:105180000005882379F260E075E059CF6BE3C60132
:105190000E94DF30BFEFCB1ADB0AEFEFEE1AFE0AF8
:1051A000F7E0EF16F10409F03DCF95CC6EE272E026
:1051B00081EE94E00E941C31892B91F50E941C1411
:1051C000A30192010E94ED302093B1053093B20506
:1051D0004093B3055093B4052093A6053093A705DB
:1051E0004093A8055093A90580910E0790910F0751
:1051F00003970CF070CC81E090E0909307018093CE
:1052000006018093240510925C0510925B05B09214
:105210000F07A0920E071092A5051092A405B9CE13
:1052200066E372E081EE94E00E941C31892B09F064
:1052300053C080910E0790910F0703970CF043C065
:10524000109224051092A5051092A40581E00E94F9
:10525000241D8091A6059091A705A091A805B09165
:10526000A905892B8A2B8B2B71F183E897E00E948B
:10527000431F82EC90E00E94A0194EE352E062E2EC
:1052800086E10E942D1C83E897E00E94191F81117E
:10529000F0CF10920F0710920E070E941C1460931B
:1052A0001F057093200580932105909322050E948D
:1052B0001C1460931B0570931C0580931D0590932F
:1052C0001E051092A2051092A6051092A705109235
:1052D000A8051092A905FFCB69E472E081EE94E085
:1052E0000E944131892B49F081E090E09093A5051F
:1052F0008093A4058093A205EECB6EE472E081EE6C
:1053000094E00E944131892BC1F087E090E09093B6
:105310000F0780930E07B092A505A092A4051092E6
:10532000500580917605882331F066E775E080E5C9
:1053300095E00E943A3181E0DDCF69E572E081EECF
:1053400094E00E944131892B49F080910E079091A1
:105350000F07049701F386E090E0D9CF62E672E090
:1053600081EE94E00E944131892BF1F10E941C14DE
:10537000A30192010E94ED302093B1053093B20554
:105380004093B3055093B40581E0809324051092B7
:105390005C0510925B0580E00E94241D88E090E08F
:1053A00090930F0780930E0724E030E03093A5051B
:1053B0002093A40580914205882341F082E495E082
:1053C0000E94503090935C0580935B0584E395E0E8
:1053D0000E9450308E31910514F48EE190E090934C
:1053E000090180930801A7CF6AE672E081EE94E09C
:1053F0000E944131892B09F44EC01092240581E0AE
:105400000E94241D43E050E05093A5054093A4055D
:1054100083E897E00E94431F8EE296E10E94A01964
:1054200044E855E069E085E00E942D1C81E099E0A8
:105430000E94A01946E755E064E185E00E942D1C1A
:105440004DE555E06DE185E00E942D1C42E455E0FC
:1054500066E285E00E942D1C44E355E06FE285E0A2
:105460000E942D1C46E255E068E385E00E942D1C59
:105470008AE290E10E94A01944E752E060E480E0F3
:105480000E942D1C83E897E00E94191F8111C4CF50
:105490001092A20520CB6FE872E081EE94E00E94AA
:1054A0004131892B09F417CB0E94E71D14CBE09101
:1054B000EC04F091ED048B3331F43196F093ED046C
:1054C000E093EC0408CBE830F10508F004CBE55993
:1054D000F54D0C940F31732A8C2AA52AC22ADD2A95
:1054E000F92A152B312B21EE34E0D9010D90002043
:1054F000E9F79D01225E3440A9014F5F5F4F4B30B9
:10550000510508F0E8CA2F513B4FF90180834F51F4
:105510005B4FDA011C92DFCA24E835E0F901019003
:105520000020E9F79F0125583540A9014F5F5F4FE3
:105530004A31510508F0CFCA2C573A4FD9018C9304
:105540004C575A4FFA011082C6CA21E030E030931E
:10555000E0042093DF0426E735E0D9010D90002018
:10556000E9F79D0127573540A9014F5F5F4F4E3046
:10557000510508F0B0CA2A583A4FF90180834A58B9
:105580005A4FC7CFB092E004A092DF042DE535E07A
:10559000F90101900020E9F79F012E553540A9013E
:1055A0004F5F5F4F4931510508F095CA235A3A4F72
:1055B000D9018C93435A5A4FC5CF23E030E0309342
:1055C000E0042093DF04A2E4B5E00D900020E9F7A9
:1055D0009D0123543540A9014F5F5F4F4E30510567
:1055E00008F079CA2E5B3A4FF90180834E5B5A4F1F
:1055F00090CFE4E0F0E0F093E004E093DF04A4E374
:10560000B5E00D900020E9F79D0125533540A90133
:105610004F5F5F4F4E30510508F05DCA2C5C3A4F2A
:10562000F90180834C5C5A4F74CFE5E0F0E0F093D1
:10563000E004E093DF04A6E2B5E00D900020E9F776
:105640009D0127523540A9014F5F5F4F4E305105F4
:1056500008F041CA2A5D3A4FF90180834A5D5A4FEA
:1056600058CF81E08093250536CA0E941C14A301FF
:1056700092010E94ED308091B1059091B205A09108
:10568000B305B091B405281B390B4A0B5B0B809115
:10569000080190910901092E000CAA0BBB0B2817D9
:1056A00039074A075B0770F08091A6059091A7051E
:1056B000A091A805B091A905892B8A2B8B2B11F4F9
:1056C0000E94E71D80910E0790910F07823091058F
:1056D00008F05DC0B0902305BB2019F0019709F0D8
:1056E0002CC3C0901F05D0902005E0902105F090BC
:1056F0002205C114D104E104F104E9F5B110ACC2F2
:1057000083E897E00E94431F8091190590911A0544
:10571000009709F0AFC2EE24E394F12C82EC90E004
:105720000E94A01949E952E069E182E10E942D1C22
:1057300046EA52E060E38AE20E942D1CF0921A05CC
:10574000E092190583E897E00E94191F8111E6CFC6
:105750000E941C1460931F057093200580932105FF
:105760009093220581E090E09093070180930601D9
:105770001092A2050CC00E941C146C197D098E09A0
:105780009F09683B7B408105910508F0B7CF809168
:1057900024058823F1F180910E0790910F0702975D
:1057A000C1F58091060190910701029721F4809143
:1057B000B505882371F183E897E00E94431F82ECCE
:1057C00090E00E94A01949E253E06BE188E10E9459
:1057D0002D1C4DE154E06DE280E30E942D1C8AE215
:1057E00090E10E94A01945E353E060E480E00E944C
:1057F0002D1C83E897E00E94191F8111E0CF82E001
:1058000090E090930701809306011092B5051092E5
:10581000A2058091A205882309F4BCC08091A4054B
:105820009091A505019709F0B5C067E473E0CE013A
:10583000865A9F4F0E943A3166E775E0CE01865A3C
:105840009F4F0E942F3180915D05882371F06AE49B
:1058500073E0CE01875B9F4F0E943A316DE575E0A2
:10586000CE01875B9F4F0E942F3180914205882394
:1058700061F06DE473E0CE01C8960E943A3162E4B3
:1058800075E0CE01C8960E942F318091340588239F
:1058900061F060E573E0CE0184960E943A3164E3E2
:1058A00075E0CE0184960E942F31809126058823D1
:1058B00051F063E573E0C8010E943A3166E275E099
:1058C000C8010E942F3183E897E00E94431F8EE2B7
:1058D00096E10E94A01944E855E069E080E00E944A
:1058E0002D1C81E099E00E94A01980917605882303
:1058F00039F0AE01465A5F4F64E180E00E942D1CF2
:1059000080915D05882339F0AE01475B5F4F6DE103
:1059100080E00E942D1C80914205882339F0AE0161
:10592000485C5F4F66E280E00E942D1C8091340548
:10593000882339F0AE014C5D5F4F6FE280E00E943A
:105940002D1C80912605882329F0A80168E380E0BA
:105950000E942D1C8AE290E10E94A01980912505E9
:105960002091060130910701223031050CF472C2FA
:1059700046E553E0811102C046E753E060E480E071
:105980000E942D1C83E897E00E94191F81119FCF70
:105990001092A2058091A205882309F467C0809126
:1059A000A4059091A505029709F060C083E897E0EF
:1059B0000E94431F2DE0D22E7E01E3E0EE0EF11C8B
:1059C0008EE296E10E94A01944E855E069E080E08B
:1059D0000E942D1C81E099E00E94A0191A82198270
:1059E000D701ED2D1D92EA95E9F76DE973E0C80145
:1059F0000E942F3160E575E0C8010E942F316FE9E8
:105A000073E0C8010E942F31A8016CE180E00E9480
:105A10002D1C198280915D05882351F08AE290E166
:105A20000E94A0194DE555E067E282E00E942D1C1E
:105A300081E099E00E94A0198091500549EB51E066
:105A4000882311F044EC51E064E380E00E942D1CB7
:105A500041EA53E06DE380E00E942D1C83E897E06B
:105A60000E94191F8111ACCF1092A2058DB69EB66F
:105A700080910E0790910F07089709F010C280914E
:105A8000A4059091A505049709F009C23090A305DB
:105A900094E6E92EF12C311004C080EDE82E87E069
:105AA000F82E8091A205882309F4DAC188E0E9E1A3
:105AB000F4E0DE01949601900D928A95E1F781E081
:105AC0008325311001C01CA28093A30584E895E0D2
:105AD000DC010D900020E9F7CD018E579540EDB720
